{
  "_format": "hh-sol-artifact-1",
  "contractName": "Helper",
  "sourceName": "contracts/Helper.sol",
  "abi": [
    {
      "inputs": [
        {
          "internalType": "address",
          "name": "_tokenAddress",
          "type": "address"
        }
      ],
      "stateMutability": "nonpayable",
      "type": "constructor"
    },
    {
      "stateMutability": "payable",
      "type": "fallback"
    },
    {
      "inputs": [
        {
          "internalType": "address payable",
          "name": "_to",
          "type": "address"
        },
        {
          "internalType": "uint256",
          "name": "_maticAmount",
          "type": "uint256"
        },
        {
          "internalType": "uint256",
          "name": "_tokenAmount",
          "type": "uint256"
        }
      ],
      "name": "swapForMatic",
      "outputs": [],
      "stateMutability": "nonpayable",
      "type": "function"
    },
    {
      "inputs": [
        {
          "internalType": "address",
          "name": "_from",
          "type": "address"
        },
        {
          "internalType": "address",
          "name": "_to",
          "type": "address"
        },
        {
          "internalType": "uint256",
          "name": "_amount",
          "type": "uint256"
        }
      ],
      "name": "transferFrom",
      "outputs": [],
      "stateMutability": "nonpayable",
      "type": "function"
    },
    {
      "inputs": [
        {
          "internalType": "address",
          "name": "_from",
          "type": "address"
        },
        {
          "internalType": "address",
          "name": "_to",
          "type": "address"
        },
        {
          "internalType": "uint256",
          "name": "_amount",
          "type": "uint256"
        },
        {
          "internalType": "uint256",
          "name": "_feeBase",
          "type": "uint256"
        }
      ],
      "name": "transferFromWithFee",
      "outputs": [],
      "stateMutability": "nonpayable",
      "type": "function"
    },
    {
      "inputs": [
        {
          "internalType": "address",
          "name": "_from",
          "type": "address"
        },
        {
          "internalType": "address",
          "name": "_to",
          "type": "address"
        },
        {
          "internalType": "uint256",
          "name": "_amount",
          "type": "uint256"
        },
        {
          "internalType": "uint256",
          "name": "_feeBase",
          "type": "uint256"
        },
        {
          "internalType": "address",
          "name": "_referrer",
          "type": "address"
        }
      ],
      "name": "transferFromWithReferrer",
      "outputs": [],
      "stateMutability": "nonpayable",
      "type": "function"
    },
    {
      "stateMutability": "payable",
      "type": "receive"
    }
  ],
  "bytecode": "0x60806040523480156200001157600080fd5b50604051620013ee380380620013ee833981810160405281019062000037919062000129565b806000806101000a81548173ffffffffffffffffffffffffffffffffffffffff021916908373ffffffffffffffffffffffffffffffffffffffff16021790555033600160006101000a81548173ffffffffffffffffffffffffffffffffffffffff021916908373ffffffffffffffffffffffffffffffffffffffff160217905550506200015b565b600080fd5b600073ffffffffffffffffffffffffffffffffffffffff82169050919050565b6000620000f182620000c4565b9050919050565b6200010381620000e4565b81146200010f57600080fd5b50565b6000815190506200012381620000f8565b92915050565b600060208284031215620001425762000141620000bf565b5b6000620001528482850162000112565b91505092915050565b611283806200016b6000396000f3fe6080604052600436106100435760003560e01c806323b872dd1461004c5780634e3f775f14610075578063bf5dee8b1461009e578063cb3e394d146100c75761004a565b3661004a57005b005b34801561005857600080fd5b50610073600480360381019061006e9190610bc8565b6100f0565b005b34801561008157600080fd5b5061009c60048036038101906100979190610c1b565b610226565b005b3480156100aa57600080fd5b506100c560048036038101906100c09190610cd4565b610624565b005b3480156100d357600080fd5b506100ee60048036038101906100e99190610d27565b6107f6565b005b600160009054906101000a900473ffffffffffffffffffffffffffffffffffffffff1673ffffffffffffffffffffffffffffffffffffffff163373ffffffffffffffffffffffffffffffffffffffff1614610180576040517f08c379a000000000000000000000000000000000000000000000000000000000815260040161017790610e11565b60405180910390fd5b60008054906101000a900473ffffffffffffffffffffffffffffffffffffffff1673ffffffffffffffffffffffffffffffffffffffff166323b872dd8484846040518463ffffffff1660e01b81526004016101dd93929190610e4f565b6020604051808303816000875af11580156101fc573d6000803e3d6000fd5b505050506040513d601f19601f820116820180604052508101906102209190610ebe565b50505050565b600160009054906101000a900473ffffffffffffffffffffffffffffffffffffffff1673ffffffffffffffffffffffffffffffffffffffff163373ffffffffffffffffffffffffffffffffffffffff16146102b6576040517f08c379a00000000000000000000000000000000000000000000000000000000081526004016102ad90610e11565b60405180910390fd5b600082116102f9576040517f08c379a00000000000000000000000000000000000000000000000000000000081526004016102f090610f37565b60405180910390fd5b81836103059190610fb5565b836103109190610fe6565b60008054906101000a900473ffffffffffffffffffffffffffffffffffffffff1673ffffffffffffffffffffffffffffffffffffffff166370a08231876040518263ffffffff1660e01b8152600401610369919061101a565b602060405180830381865afa158015610386573d6000803e3d6000fd5b505050506040513d601f19601f820116820180604052508101906103aa919061104a565b116103ea576040517f08c379a00000000000000000000000000000000000000000000000000000000081526004016103e1906110e9565b60405180910390fd5b60008054906101000a900473ffffffffffffffffffffffffffffffffffffffff1673ffffffffffffffffffffffffffffffffffffffff166323b872dd86838560026104359190611109565b876104409190610fb5565b6040518463ffffffff1660e01b815260040161045e93929190610e4f565b6020604051808303816000875af115801561047d573d6000803e3d6000fd5b505050506040513d601f19601f820116820180604052508101906104a19190610ebe565b5060008054906101000a900473ffffffffffffffffffffffffffffffffffffffff1673ffffffffffffffffffffffffffffffffffffffff166323b872dd86600160009054906101000a900473ffffffffffffffffffffffffffffffffffffffff1685600261050f9190611109565b8761051a9190610fb5565b6040518463ffffffff1660e01b815260040161053893929190610e4f565b6020604051808303816000875af1158015610557573d6000803e3d6000fd5b505050506040513d601f19601f8201168201806040525081019061057b9190610ebe565b5060008054906101000a900473ffffffffffffffffffffffffffffffffffffffff1673ffffffffffffffffffffffffffffffffffffffff166323b872dd8686866040518463ffffffff1660e01b81526004016105d993929190610e4f565b6020604051808303816000875af11580156105f8573d6000803e3d6000fd5b505050506040513d601f19601f8201168201806040525081019061061c9190610ebe565b505050505050565b600160009054906101000a900473ffffffffffffffffffffffffffffffffffffffff1673ffffffffffffffffffffffffffffffffffffffff163373ffffffffffffffffffffffffffffffffffffffff16146106b4576040517f08c379a00000000000000000000000000000000000000000000000000000000081526004016106ab90610e11565b60405180910390fd5b60008373ffffffffffffffffffffffffffffffffffffffff166108fc849081150290604051600060405180830381858888f1935050505090508061072d576040517f08c379a000000000000000000000000000000000000000000000000000000000815260040161072490611197565b60405180910390fd5b60008054906101000a900473ffffffffffffffffffffffffffffffffffffffff1673ffffffffffffffffffffffffffffffffffffffff166323b872dd85600160009054906101000a900473ffffffffffffffffffffffffffffffffffffffff16856040518463ffffffff1660e01b81526004016107ac93929190611216565b6020604051808303816000875af11580156107cb573d6000803e3d6000fd5b505050506040513d601f19601f820116820180604052508101906107ef9190610ebe565b5050505050565b600160009054906101000a900473ffffffffffffffffffffffffffffffffffffffff1673ffffffffffffffffffffffffffffffffffffffff163373ffffffffffffffffffffffffffffffffffffffff1614610886576040517f08c379a000000000000000000000000000000000000000000000000000000000815260040161087d90610e11565b60405180910390fd5b600081116108c9576040517f08c379a00000000000000000000000000000000000000000000000000000000081526004016108c090610f37565b60405180910390fd5b80826108d59190610fb5565b826108e09190610fe6565b60008054906101000a900473ffffffffffffffffffffffffffffffffffffffff1673ffffffffffffffffffffffffffffffffffffffff166370a08231866040518263ffffffff1660e01b8152600401610939919061101a565b602060405180830381865afa158015610956573d6000803e3d6000fd5b505050506040513d601f19601f8201168201806040525081019061097a919061104a565b116109ba576040517f08c379a00000000000000000000000000000000000000000000000000000000081526004016109b1906110e9565b60405180910390fd5b60008054906101000a900473ffffffffffffffffffffffffffffffffffffffff1673ffffffffffffffffffffffffffffffffffffffff166323b872dd85600160009054906101000a900473ffffffffffffffffffffffffffffffffffffffff168486610a269190610fb5565b6040518463ffffffff1660e01b8152600401610a4493929190610e4f565b6020604051808303816000875af1158015610a63573d6000803e3d6000fd5b505050506040513d601f19601f82011682018060405250810190610a879190610ebe565b5060008054906101000a900473ffffffffffffffffffffffffffffffffffffffff1673ffffffffffffffffffffffffffffffffffffffff166323b872dd8585856040518463ffffffff1660e01b8152600401610ae593929190610e4f565b6020604051808303816000875af1158015610b04573d6000803e3d6000fd5b505050506040513d601f19601f82011682018060405250810190610b289190610ebe565b5050505050565b600080fd5b600073ffffffffffffffffffffffffffffffffffffffff82169050919050565b6000610b5f82610b34565b9050919050565b610b6f81610b54565b8114610b7a57600080fd5b50565b600081359050610b8c81610b66565b92915050565b6000819050919050565b610ba581610b92565b8114610bb057600080fd5b50565b600081359050610bc281610b9c565b92915050565b600080600060608486031215610be157610be0610b2f565b5b6000610bef86828701610b7d565b9350506020610c0086828701610b7d565b9250506040610c1186828701610bb3565b9150509250925092565b600080600080600060a08688031215610c3757610c36610b2f565b5b6000610c4588828901610b7d565b9550506020610c5688828901610b7d565b9450506040610c6788828901610bb3565b9350506060610c7888828901610bb3565b9250506080610c8988828901610b7d565b9150509295509295909350565b6000610ca182610b34565b9050919050565b610cb181610c96565b8114610cbc57600080fd5b50565b600081359050610cce81610ca8565b92915050565b600080600060608486031215610ced57610cec610b2f565b5b6000610cfb86828701610cbf565b9350506020610d0c86828701610bb3565b9250506040610d1d86828701610bb3565b9150509250925092565b60008060008060808587031215610d4157610d40610b2f565b5b6000610d4f87828801610b7d565b9450506020610d6087828801610b7d565b9350506040610d7187828801610bb3565b9250506060610d8287828801610bb3565b91505092959194509250565b600082825260208201905092915050565b7f6d6574686f642063616e206f6e6c792062652063616c6c6564206279206f776e60008201527f6572000000000000000000000000000000000000000000000000000000000000602082015250565b6000610dfb602283610d8e565b9150610e0682610d9f565b604082019050919050565b60006020820190508181036000830152610e2a81610dee565b9050919050565b610e3a81610b54565b82525050565b610e4981610b92565b82525050565b6000606082019050610e646000830186610e31565b610e716020830185610e31565b610e7e6040830184610e40565b949350505050565b60008115159050919050565b610e9b81610e86565b8114610ea657600080fd5b50565b600081519050610eb881610e92565b92915050565b600060208284031215610ed457610ed3610b2f565b5b6000610ee284828501610ea9565b91505092915050565b7f66656520626173652063616e7420626520300000000000000000000000000000600082015250565b6000610f21601283610d8e565b9150610f2c82610eeb565b602082019050919050565b60006020820190508181036000830152610f5081610f14565b9050919050565b7f4e487b7100000000000000000000000000000000000000000000000000000000600052601260045260246000fd5b7f4e487b7100000000000000000000000000000000000000000000000000000000600052601160045260246000fd5b6000610fc082610b92565b9150610fcb83610b92565b925082610fdb57610fda610f57565b5b828204905092915050565b6000610ff182610b92565b9150610ffc83610b92565b925082820190508082111561101457611013610f86565b5b92915050565b600060208201905061102f6000830184610e31565b92915050565b60008151905061104481610b9c565b92915050565b6000602082840312156110605761105f610b2f565b5b600061106e84828501611035565b91505092915050565b7f53656e64657220646f65736e7420686176652073756666696369656e7420667560008201527f6e64730000000000000000000000000000000000000000000000000000000000602082015250565b60006110d3602383610d8e565b91506110de82611077565b604082019050919050565b60006020820190508181036000830152611102816110c6565b9050919050565b600061111482610b92565b915061111f83610b92565b925082820261112d81610b92565b9150828204841483151761114457611143610f86565b5b5092915050565b7f4661696c656420746f2073656e64204574686572000000000000000000000000600082015250565b6000611181601483610d8e565b915061118c8261114b565b602082019050919050565b600060208201905081810360008301526111b081611174565b9050919050565b6000819050919050565b60006111dc6111d76111d284610b34565b6111b7565b610b34565b9050919050565b60006111ee826111c1565b9050919050565b6000611200826111e3565b9050919050565b611210816111f5565b82525050565b600060608201905061122b6000830186611207565b6112386020830185610e31565b6112456040830184610e40565b94935050505056fea2646970667358221220f1f5720c093ca55d7c977c400f4e20b42596f3e7dc5a8a5f96ac7a05cedb792e64736f6c63430008110033",
  "linkReferences": {},
  "deployedLinkReferences": {}
}