{
  "_format": "hh-sol-artifact-1",
  "contractName": "Helper",
  "sourceName": "contracts/Helper.sol",
  "abi": [
    {
      "inputs": [
        {
          "internalType": "address",
          "name": "_tokenAddress",
          "type": "address"
        }
      ],
      "stateMutability": "nonpayable",
      "type": "constructor"
    },
    {
      "inputs": [
        {
          "internalType": "address",
          "name": "_from",
          "type": "address"
        },
        {
          "internalType": "address",
          "name": "_to",
          "type": "address"
        },
        {
          "internalType": "uint256",
          "name": "_amount",
          "type": "uint256"
        }
      ],
      "name": "transferFrom",
      "outputs": [],
      "stateMutability": "nonpayable",
      "type": "function"
    },
    {
      "inputs": [
        {
          "internalType": "address",
          "name": "_from",
          "type": "address"
        },
        {
          "internalType": "address",
          "name": "_to",
          "type": "address"
        },
        {
          "internalType": "uint256",
          "name": "_amount",
          "type": "uint256"
        },
        {
          "internalType": "uint256",
          "name": "_feeBase",
          "type": "uint256"
        }
      ],
      "name": "transferFromWithFee",
      "outputs": [],
      "stateMutability": "nonpayable",
      "type": "function"
    },
    {
      "inputs": [
        {
          "internalType": "address",
          "name": "_from",
          "type": "address"
        },
        {
          "internalType": "address",
          "name": "_to",
          "type": "address"
        },
        {
          "internalType": "uint256",
          "name": "_amount",
          "type": "uint256"
        },
        {
          "internalType": "uint256",
          "name": "_feeBase",
          "type": "uint256"
        },
        {
          "internalType": "address",
          "name": "_referrer",
          "type": "address"
        }
      ],
      "name": "transferFromWithReferrer",
      "outputs": [],
      "stateMutability": "nonpayable",
      "type": "function"
    }
  ],
  "bytecode": "0x608060405234801561001057600080fd5b5060405162001023380380620010238339818101604052810190610034919061011e565b806000806101000a81548173ffffffffffffffffffffffffffffffffffffffff021916908373ffffffffffffffffffffffffffffffffffffffff16021790555033600160006101000a81548173ffffffffffffffffffffffffffffffffffffffff021916908373ffffffffffffffffffffffffffffffffffffffff1602179055505061014b565b600080fd5b600073ffffffffffffffffffffffffffffffffffffffff82169050919050565b60006100eb826100c0565b9050919050565b6100fb816100e0565b811461010657600080fd5b50565b600081519050610118816100f2565b92915050565b600060208284031215610134576101336100bb565b5b600061014284828501610109565b91505092915050565b610ec8806200015b6000396000f3fe608060405234801561001057600080fd5b50600436106100415760003560e01c806323b872dd146100465780634e3f775f14610062578063cb3e394d1461007e575b600080fd5b610060600480360381019061005b91906109a0565b61009a565b005b61007c600480360381019061007791906109f3565b6101d0565b005b61009860048036038101906100939190610a6e565b6105ce565b005b600160009054906101000a900473ffffffffffffffffffffffffffffffffffffffff1673ffffffffffffffffffffffffffffffffffffffff163373ffffffffffffffffffffffffffffffffffffffff161461012a576040517f08c379a000000000000000000000000000000000000000000000000000000000815260040161012190610b58565b60405180910390fd5b60008054906101000a900473ffffffffffffffffffffffffffffffffffffffff1673ffffffffffffffffffffffffffffffffffffffff166323b872dd8484846040518463ffffffff1660e01b815260040161018793929190610b96565b6020604051808303816000875af11580156101a6573d6000803e3d6000fd5b505050506040513d601f19601f820116820180604052508101906101ca9190610c05565b50505050565b600160009054906101000a900473ffffffffffffffffffffffffffffffffffffffff1673ffffffffffffffffffffffffffffffffffffffff163373ffffffffffffffffffffffffffffffffffffffff1614610260576040517f08c379a000000000000000000000000000000000000000000000000000000000815260040161025790610b58565b60405180910390fd5b600082116102a3576040517f08c379a000000000000000000000000000000000000000000000000000000000815260040161029a90610c7e565b60405180910390fd5b81836102af9190610cfc565b836102ba9190610d2d565b60008054906101000a900473ffffffffffffffffffffffffffffffffffffffff1673ffffffffffffffffffffffffffffffffffffffff166370a08231876040518263ffffffff1660e01b81526004016103139190610d61565b602060405180830381865afa158015610330573d6000803e3d6000fd5b505050506040513d601f19601f820116820180604052508101906103549190610d91565b11610394576040517f08c379a000000000000000000000000000000000000000000000000000000000815260040161038b90610e30565b60405180910390fd5b60008054906101000a900473ffffffffffffffffffffffffffffffffffffffff1673ffffffffffffffffffffffffffffffffffffffff166323b872dd86838560026103df9190610e50565b876103ea9190610cfc565b6040518463ffffffff1660e01b815260040161040893929190610b96565b6020604051808303816000875af1158015610427573d6000803e3d6000fd5b505050506040513d601f19601f8201168201806040525081019061044b9190610c05565b5060008054906101000a900473ffffffffffffffffffffffffffffffffffffffff1673ffffffffffffffffffffffffffffffffffffffff166323b872dd86600160009054906101000a900473ffffffffffffffffffffffffffffffffffffffff168560026104b99190610e50565b876104c49190610cfc565b6040518463ffffffff1660e01b81526004016104e293929190610b96565b6020604051808303816000875af1158015610501573d6000803e3d6000fd5b505050506040513d601f19601f820116820180604052508101906105259190610c05565b5060008054906101000a900473ffffffffffffffffffffffffffffffffffffffff1673ffffffffffffffffffffffffffffffffffffffff166323b872dd8686866040518463ffffffff1660e01b815260040161058393929190610b96565b6020604051808303816000875af11580156105a2573d6000803e3d6000fd5b505050506040513d601f19601f820116820180604052508101906105c69190610c05565b505050505050565b600160009054906101000a900473ffffffffffffffffffffffffffffffffffffffff1673ffffffffffffffffffffffffffffffffffffffff163373ffffffffffffffffffffffffffffffffffffffff161461065e576040517f08c379a000000000000000000000000000000000000000000000000000000000815260040161065590610b58565b60405180910390fd5b600081116106a1576040517f08c379a000000000000000000000000000000000000000000000000000000000815260040161069890610c7e565b60405180910390fd5b80826106ad9190610cfc565b826106b89190610d2d565b60008054906101000a900473ffffffffffffffffffffffffffffffffffffffff1673ffffffffffffffffffffffffffffffffffffffff166370a08231866040518263ffffffff1660e01b81526004016107119190610d61565b602060405180830381865afa15801561072e573d6000803e3d6000fd5b505050506040513d601f19601f820116820180604052508101906107529190610d91565b11610792576040517f08c379a000000000000000000000000000000000000000000000000000000000815260040161078990610e30565b60405180910390fd5b60008054906101000a900473ffffffffffffffffffffffffffffffffffffffff1673ffffffffffffffffffffffffffffffffffffffff166323b872dd85600160009054906101000a900473ffffffffffffffffffffffffffffffffffffffff1684866107fe9190610cfc565b6040518463ffffffff1660e01b815260040161081c93929190610b96565b6020604051808303816000875af115801561083b573d6000803e3d6000fd5b505050506040513d601f19601f8201168201806040525081019061085f9190610c05565b5060008054906101000a900473ffffffffffffffffffffffffffffffffffffffff1673ffffffffffffffffffffffffffffffffffffffff166323b872dd8585856040518463ffffffff1660e01b81526004016108bd93929190610b96565b6020604051808303816000875af11580156108dc573d6000803e3d6000fd5b505050506040513d601f19601f820116820180604052508101906109009190610c05565b5050505050565b600080fd5b600073ffffffffffffffffffffffffffffffffffffffff82169050919050565b60006109378261090c565b9050919050565b6109478161092c565b811461095257600080fd5b50565b6000813590506109648161093e565b92915050565b6000819050919050565b61097d8161096a565b811461098857600080fd5b50565b60008135905061099a81610974565b92915050565b6000806000606084860312156109b9576109b8610907565b5b60006109c786828701610955565b93505060206109d886828701610955565b92505060406109e98682870161098b565b9150509250925092565b600080600080600060a08688031215610a0f57610a0e610907565b5b6000610a1d88828901610955565b9550506020610a2e88828901610955565b9450506040610a3f8882890161098b565b9350506060610a508882890161098b565b9250506080610a6188828901610955565b9150509295509295909350565b60008060008060808587031215610a8857610a87610907565b5b6000610a9687828801610955565b9450506020610aa787828801610955565b9350506040610ab88782880161098b565b9250506060610ac98782880161098b565b91505092959194509250565b600082825260208201905092915050565b7f6d6574686f642063616e206f6e6c792062652063616c6c6564206279206f776e60008201527f6572000000000000000000000000000000000000000000000000000000000000602082015250565b6000610b42602283610ad5565b9150610b4d82610ae6565b604082019050919050565b60006020820190508181036000830152610b7181610b35565b9050919050565b610b818161092c565b82525050565b610b908161096a565b82525050565b6000606082019050610bab6000830186610b78565b610bb86020830185610b78565b610bc56040830184610b87565b949350505050565b60008115159050919050565b610be281610bcd565b8114610bed57600080fd5b50565b600081519050610bff81610bd9565b92915050565b600060208284031215610c1b57610c1a610907565b5b6000610c2984828501610bf0565b91505092915050565b7f66656520626173652063616e7420626520300000000000000000000000000000600082015250565b6000610c68601283610ad5565b9150610c7382610c32565b602082019050919050565b60006020820190508181036000830152610c9781610c5b565b9050919050565b7f4e487b7100000000000000000000000000000000000000000000000000000000600052601260045260246000fd5b7f4e487b7100000000000000000000000000000000000000000000000000000000600052601160045260246000fd5b6000610d078261096a565b9150610d128361096a565b925082610d2257610d21610c9e565b5b828204905092915050565b6000610d388261096a565b9150610d438361096a565b9250828201905080821115610d5b57610d5a610ccd565b5b92915050565b6000602082019050610d766000830184610b78565b92915050565b600081519050610d8b81610974565b92915050565b600060208284031215610da757610da6610907565b5b6000610db584828501610d7c565b91505092915050565b7f53656e64657220646f65736e7420686176652073756666696369656e7420667560008201527f6e64730000000000000000000000000000000000000000000000000000000000602082015250565b6000610e1a602383610ad5565b9150610e2582610dbe565b604082019050919050565b60006020820190508181036000830152610e4981610e0d565b9050919050565b6000610e5b8261096a565b9150610e668361096a565b9250828202610e748161096a565b91508282048414831517610e8b57610e8a610ccd565b5b509291505056fea2646970667358221220d3019fac51f73f60469f90918f549fd5f71cbd9909c912624e74057d7f2d21c364736f6c63430008110033",
  "linkReferences": {},
  "deployedLinkReferences": {}
}