{
  "_format": "hh-sol-artifact-1",
  "contractName": "Escrow",
  "sourceName": "contracts/Escrow.sol",
  "abi": [
    {
      "inputs": [
        {
          "internalType": "address",
          "name": "_tokenAddress",
          "type": "address"
        }
      ],
      "stateMutability": "nonpayable",
      "type": "constructor"
    },
    {
      "inputs": [
        {
          "internalType": "uint256",
          "name": "contractId",
          "type": "uint256"
        },
        {
          "internalType": "uint256",
          "name": "amountToLock",
          "type": "uint256"
        }
      ],
      "name": "adhereToContract",
      "outputs": [],
      "stateMutability": "nonpayable",
      "type": "function"
    },
    {
      "inputs": [
        {
          "internalType": "uint256",
          "name": "contractId",
          "type": "uint256"
        }
      ],
      "name": "approveRelease",
      "outputs": [],
      "stateMutability": "nonpayable",
      "type": "function"
    },
    {
      "inputs": [
        {
          "internalType": "uint256",
          "name": "numberOfParties",
          "type": "uint256"
        },
        {
          "internalType": "address[]",
          "name": "_whiteListedParties",
          "type": "address[]"
        },
        {
          "internalType": "uint256",
          "name": "daysToUnlock",
          "type": "uint256"
        }
      ],
      "name": "createContract",
      "outputs": [],
      "stateMutability": "nonpayable",
      "type": "function"
    },
    {
      "inputs": [
        {
          "internalType": "uint256",
          "name": "contractId",
          "type": "uint256"
        },
        {
          "internalType": "address",
          "name": "_address",
          "type": "address"
        }
      ],
      "name": "getAddressLockConfig",
      "outputs": [
        {
          "internalType": "uint256",
          "name": "",
          "type": "uint256"
        }
      ],
      "stateMutability": "view",
      "type": "function"
    },
    {
      "inputs": [
        {
          "internalType": "uint256",
          "name": "contractId",
          "type": "uint256"
        },
        {
          "internalType": "address",
          "name": "_address",
          "type": "address"
        }
      ],
      "name": "getAddressWithdrawProportion",
      "outputs": [
        {
          "internalType": "uint256",
          "name": "",
          "type": "uint256"
        }
      ],
      "stateMutability": "view",
      "type": "function"
    },
    {
      "inputs": [
        {
          "internalType": "uint256",
          "name": "contractId",
          "type": "uint256"
        }
      ],
      "name": "getContract",
      "outputs": [
        {
          "components": [
            {
              "internalType": "uint256",
              "name": "_contractId",
              "type": "uint256"
            },
            {
              "internalType": "address",
              "name": "createdBy",
              "type": "address"
            },
            {
              "internalType": "uint256",
              "name": "totalContractValue",
              "type": "uint256"
            },
            {
              "internalType": "uint256",
              "name": "unlockTime",
              "type": "uint256"
            },
            {
              "internalType": "address[]",
              "name": "whiteListedParties",
              "type": "address[]"
            },
            {
              "internalType": "uint256",
              "name": "numberOfParties",
              "type": "uint256"
            },
            {
              "components": [
                {
                  "internalType": "address",
                  "name": "partyAddress",
                  "type": "address"
                },
                {
                  "internalType": "uint256",
                  "name": "_lockedAmount",
                  "type": "uint256"
                },
                {
                  "internalType": "bool",
                  "name": "approvedRelease",
                  "type": "bool"
                },
                {
                  "internalType": "uint256",
                  "name": "_withdrawnAmount",
                  "type": "uint256"
                }
              ],
              "internalType": "struct Escrow.ContractParty[]",
              "name": "involvedParties",
              "type": "tuple[]"
            },
            {
              "components": [
                {
                  "internalType": "address",
                  "name": "partyAddress",
                  "type": "address"
                },
                {
                  "internalType": "uint256",
                  "name": "withdrawalProportion",
                  "type": "uint256"
                }
              ],
              "internalType": "struct Escrow.WithdrawalConfig[]",
              "name": "withdrawalConfig",
              "type": "tuple[]"
            },
            {
              "components": [
                {
                  "internalType": "address",
                  "name": "partyAddress",
                  "type": "address"
                },
                {
                  "internalType": "uint256",
                  "name": "amountToLock",
                  "type": "uint256"
                }
              ],
              "internalType": "struct Escrow.LockConfig[]",
              "name": "lockConfig",
              "type": "tuple[]"
            }
          ],
          "internalType": "struct Escrow.Contract",
          "name": "",
          "type": "tuple"
        }
      ],
      "stateMutability": "view",
      "type": "function"
    },
    {
      "inputs": [],
      "name": "getContractIdsForAddress",
      "outputs": [
        {
          "internalType": "uint256[]",
          "name": "",
          "type": "uint256[]"
        }
      ],
      "stateMutability": "view",
      "type": "function"
    },
    {
      "inputs": [],
      "name": "getContractsForAddress",
      "outputs": [
        {
          "components": [
            {
              "internalType": "uint256",
              "name": "_contractId",
              "type": "uint256"
            },
            {
              "internalType": "address",
              "name": "createdBy",
              "type": "address"
            },
            {
              "internalType": "uint256",
              "name": "totalContractValue",
              "type": "uint256"
            },
            {
              "internalType": "uint256",
              "name": "unlockTime",
              "type": "uint256"
            },
            {
              "internalType": "address[]",
              "name": "whiteListedParties",
              "type": "address[]"
            },
            {
              "internalType": "uint256",
              "name": "numberOfParties",
              "type": "uint256"
            },
            {
              "components": [
                {
                  "internalType": "address",
                  "name": "partyAddress",
                  "type": "address"
                },
                {
                  "internalType": "uint256",
                  "name": "_lockedAmount",
                  "type": "uint256"
                },
                {
                  "internalType": "bool",
                  "name": "approvedRelease",
                  "type": "bool"
                },
                {
                  "internalType": "uint256",
                  "name": "_withdrawnAmount",
                  "type": "uint256"
                }
              ],
              "internalType": "struct Escrow.ContractParty[]",
              "name": "involvedParties",
              "type": "tuple[]"
            },
            {
              "components": [
                {
                  "internalType": "address",
                  "name": "partyAddress",
                  "type": "address"
                },
                {
                  "internalType": "uint256",
                  "name": "withdrawalProportion",
                  "type": "uint256"
                }
              ],
              "internalType": "struct Escrow.WithdrawalConfig[]",
              "name": "withdrawalConfig",
              "type": "tuple[]"
            },
            {
              "components": [
                {
                  "internalType": "address",
                  "name": "partyAddress",
                  "type": "address"
                },
                {
                  "internalType": "uint256",
                  "name": "amountToLock",
                  "type": "uint256"
                }
              ],
              "internalType": "struct Escrow.LockConfig[]",
              "name": "lockConfig",
              "type": "tuple[]"
            }
          ],
          "internalType": "struct Escrow.Contract[]",
          "name": "",
          "type": "tuple[]"
        }
      ],
      "stateMutability": "view",
      "type": "function"
    },
    {
      "inputs": [
        {
          "internalType": "uint256",
          "name": "contractId",
          "type": "uint256"
        }
      ],
      "name": "getLockedAmountForAddress",
      "outputs": [
        {
          "internalType": "uint256",
          "name": "",
          "type": "uint256"
        }
      ],
      "stateMutability": "view",
      "type": "function"
    },
    {
      "inputs": [
        {
          "internalType": "uint256",
          "name": "contractId",
          "type": "uint256"
        }
      ],
      "name": "getLockedAmountForContract",
      "outputs": [
        {
          "internalType": "uint256",
          "name": "",
          "type": "uint256"
        }
      ],
      "stateMutability": "view",
      "type": "function"
    },
    {
      "inputs": [
        {
          "internalType": "uint256",
          "name": "contractId",
          "type": "uint256"
        }
      ],
      "name": "getTotalContractValue",
      "outputs": [
        {
          "internalType": "uint256",
          "name": "",
          "type": "uint256"
        }
      ],
      "stateMutability": "view",
      "type": "function"
    },
    {
      "inputs": [
        {
          "internalType": "uint256",
          "name": "contractId",
          "type": "uint256"
        }
      ],
      "name": "getWithdrawalProportionTotalForContract",
      "outputs": [
        {
          "internalType": "uint256",
          "name": "",
          "type": "uint256"
        }
      ],
      "stateMutability": "view",
      "type": "function"
    },
    {
      "inputs": [
        {
          "internalType": "uint256",
          "name": "contractId",
          "type": "uint256"
        }
      ],
      "name": "getWithdrawnAmountForAddress",
      "outputs": [
        {
          "internalType": "uint256",
          "name": "",
          "type": "uint256"
        }
      ],
      "stateMutability": "view",
      "type": "function"
    },
    {
      "inputs": [
        {
          "internalType": "uint256",
          "name": "contractId",
          "type": "uint256"
        }
      ],
      "name": "getWithdrawnAmountForContract",
      "outputs": [
        {
          "internalType": "uint256",
          "name": "",
          "type": "uint256"
        }
      ],
      "stateMutability": "view",
      "type": "function"
    },
    {
      "inputs": [
        {
          "internalType": "uint256",
          "name": "contractId",
          "type": "uint256"
        },
        {
          "internalType": "address",
          "name": "_address",
          "type": "address"
        }
      ],
      "name": "hasAddressLockConfigSet",
      "outputs": [
        {
          "internalType": "bool",
          "name": "",
          "type": "bool"
        }
      ],
      "stateMutability": "view",
      "type": "function"
    },
    {
      "inputs": [
        {
          "internalType": "uint256",
          "name": "contractId",
          "type": "uint256"
        },
        {
          "internalType": "address",
          "name": "_address",
          "type": "address"
        }
      ],
      "name": "hasAddressWithdrawConfigSet",
      "outputs": [
        {
          "internalType": "bool",
          "name": "",
          "type": "bool"
        }
      ],
      "stateMutability": "view",
      "type": "function"
    },
    {
      "inputs": [
        {
          "internalType": "uint256",
          "name": "contractId",
          "type": "uint256"
        }
      ],
      "name": "isAddressWhitelistedInContract",
      "outputs": [
        {
          "internalType": "bool",
          "name": "",
          "type": "bool"
        }
      ],
      "stateMutability": "view",
      "type": "function"
    },
    {
      "inputs": [
        {
          "internalType": "uint256",
          "name": "contractId",
          "type": "uint256"
        }
      ],
      "name": "isCallerInvolvedInContract",
      "outputs": [
        {
          "internalType": "bool",
          "name": "",
          "type": "bool"
        }
      ],
      "stateMutability": "view",
      "type": "function"
    },
    {
      "inputs": [
        {
          "internalType": "uint256",
          "name": "contractId",
          "type": "uint256"
        }
      ],
      "name": "isContractCompletelySigned",
      "outputs": [
        {
          "internalType": "bool",
          "name": "",
          "type": "bool"
        }
      ],
      "stateMutability": "view",
      "type": "function"
    },
    {
      "inputs": [
        {
          "internalType": "uint256",
          "name": "contractId",
          "type": "uint256"
        }
      ],
      "name": "isContractInDraft",
      "outputs": [
        {
          "internalType": "bool",
          "name": "",
          "type": "bool"
        }
      ],
      "stateMutability": "view",
      "type": "function"
    },
    {
      "inputs": [
        {
          "internalType": "uint256",
          "name": "contractId",
          "type": "uint256"
        }
      ],
      "name": "isContractRedeemable",
      "outputs": [
        {
          "internalType": "bool",
          "name": "",
          "type": "bool"
        }
      ],
      "stateMutability": "view",
      "type": "function"
    },
    {
      "inputs": [
        {
          "internalType": "uint256",
          "name": "contractId",
          "type": "uint256"
        }
      ],
      "name": "isLockConfigSet",
      "outputs": [
        {
          "internalType": "bool",
          "name": "",
          "type": "bool"
        }
      ],
      "stateMutability": "view",
      "type": "function"
    },
    {
      "inputs": [
        {
          "internalType": "uint256",
          "name": "contractId",
          "type": "uint256"
        }
      ],
      "name": "isWithdrawalProportionConfigSet",
      "outputs": [
        {
          "internalType": "bool",
          "name": "",
          "type": "bool"
        }
      ],
      "stateMutability": "view",
      "type": "function"
    },
    {
      "inputs": [
        {
          "internalType": "uint256",
          "name": "contractId",
          "type": "uint256"
        },
        {
          "internalType": "address",
          "name": "_address",
          "type": "address"
        },
        {
          "internalType": "uint256",
          "name": "_amountToLock",
          "type": "uint256"
        }
      ],
      "name": "setLockConfigForContract",
      "outputs": [],
      "stateMutability": "nonpayable",
      "type": "function"
    },
    {
      "inputs": [
        {
          "internalType": "uint256",
          "name": "contractId",
          "type": "uint256"
        },
        {
          "internalType": "address",
          "name": "_address",
          "type": "address"
        },
        {
          "internalType": "uint256",
          "name": "proportion",
          "type": "uint256"
        }
      ],
      "name": "setWithdrawalConfigForContract",
      "outputs": [],
      "stateMutability": "nonpayable",
      "type": "function"
    },
    {
      "inputs": [
        {
          "internalType": "uint256",
          "name": "contractId",
          "type": "uint256"
        }
      ],
      "name": "withdrawFromContract",
      "outputs": [],
      "stateMutability": "nonpayable",
      "type": "function"
    }
  ],
  "bytecode": "0x60806040523480156200001157600080fd5b506040516200562838038062005628833981810160405281019062000037919062000129565b806000806101000a81548173ffffffffffffffffffffffffffffffffffffffff021916908373ffffffffffffffffffffffffffffffffffffffff16021790555033600260006101000a81548173ffffffffffffffffffffffffffffffffffffffff021916908373ffffffffffffffffffffffffffffffffffffffff160217905550506200015b565b600080fd5b600073ffffffffffffffffffffffffffffffffffffffff82169050919050565b6000620000f182620000c4565b9050919050565b6200010381620000e4565b81146200010f57600080fd5b50565b6000815190506200012381620000f8565b92915050565b600060208284031215620001425762000141620000bf565b5b6000620001528482850162000112565b91505092915050565b6154bd806200016b6000396000f3fe608060405234801561001057600080fd5b506004361061018e5760003560e01c806367321fc7116100de5780639251944111610097578063c30dba1b11610071578063c30dba1b14610529578063dc7981d914610559578063e67b069514610589578063f196cef4146105b95761018e565b806392519441146104ad5780639a4c88ea146104dd578063aeae547d1461050d5761018e565b806367321fc7146103a157806367b15fe3146103d15780636ebc8c86146104015780637f130ec0146104315780638689bfbc146104615780638b5499ed146104915761018e565b806340f446241161014b57806348cc19ef1161012557806348cc19ef146102f55780634e688ade1461031157806356dd906a146103415780636332ff26146103715761018e565b806340f446241461027757806343bfc3c714610295578063466cb7da146102c55761018e565b80631a7f86a6146101935780631a82360c146101c35780631b59fd72146101f35780631bd2cea11461020f5780632841430d1461022b5780632eafa40a1461025b575b600080fd5b6101ad60048036038101906101a8919061347b565b6105d7565b6040516101ba91906134c3565b60405180910390f35b6101dd60048036038101906101d8919061353c565b6106b7565b6040516101ea919061358b565b60405180910390f35b61020d600480360381019061020891906136ff565b6107f6565b005b6102296004803603810190610224919061347b565b610a0e565b005b6102456004803603810190610240919061353c565b610b9a565b60405161025291906134c3565b60405180910390f35b6102756004803603810190610270919061376e565b610c69565b005b61027f610f59565b60405161028c9190613cf9565b60405180910390f35b6102af60048036038101906102aa919061347b565b6113f9565b6040516102bc91906134c3565b60405180910390f35b6102df60048036038101906102da919061347b565b611495565b6040516102ec91906134c3565b60405180910390f35b61030f600480360381019061030a9190613d1b565b6114c0565b005b61032b6004803603810190610326919061347b565b611a39565b604051610338919061358b565b60405180910390f35b61035b6004803603810190610356919061347b565b611abc565b604051610368919061358b565b60405180910390f35b61038b6004803603810190610386919061347b565b611bf9565b604051610398919061358b565b60405180910390f35b6103bb60048036038101906103b6919061347b565b611d36565b6040516103c8919061358b565b60405180910390f35b6103eb60048036038101906103e6919061347b565b611d5b565b6040516103f8919061358b565b60405180910390f35b61041b6004803603810190610416919061347b565b611dde565b6040516104289190613e35565b60405180910390f35b61044b6004803603810190610446919061353c565b61217a565b60405161045891906134c3565b60405180910390f35b61047b6004803603810190610476919061347b565b612249565b604051610488919061358b565b60405180910390f35b6104ab60048036038101906104a6919061376e565b6122cc565b005b6104c760048036038101906104c2919061347b565b61250b565b6040516104d491906134c3565b60405180910390f35b6104f760048036038101906104f2919061347b565b61252a565b60405161050491906134c3565b60405180910390f35b6105276004803603810190610522919061347b565b61256f565b005b610543600480360381019061053e919061353c565b612c65565b604051610550919061358b565b60405180910390f35b610573600480360381019061056e919061347b565b612da4565b60405161058091906134c3565b60405180910390f35b6105a3600480360381019061059e919061347b565b612dcf565b6040516105b091906134c3565b60405180910390f35b6105c1612e9d565b6040516105ce9190613f06565b60405180910390f35b60008060036000848152602001908152602001600020905060008160040180549050036106085760019150506106b2565b60005b81600401805490508110156106ab573373ffffffffffffffffffffffffffffffffffffffff1682600401828154811061064757610646613f28565b5b9060005260206000200160009054906101000a900473ffffffffffffffffffffffffffffffffffffffff1673ffffffffffffffffffffffffffffffffffffffff1603610698576001925050506106b2565b80806106a390613f86565b91505061060b565b5060009150505b919050565b60006106c38383610b9a565b610702576040517f08c379a00000000000000000000000000000000000000000000000000000000081526004016106f990614051565b60405180910390fd5b600060036000858152602001908152602001600020905060005b81600801805490508110156107e9578373ffffffffffffffffffffffffffffffffffffffff1682600801828154811061075857610757613f28565b5b906000526020600020906002020160000160009054906101000a900473ffffffffffffffffffffffffffffffffffffffff1673ffffffffffffffffffffffffffffffffffffffff16036107d6578160080181815481106107bb576107ba613f28565b5b906000526020600020906002020160010154925050506107f0565b80806107e190613f86565b91505061071c565b5060009150505b92915050565b600283101561083a576040517f08c379a0000000000000000000000000000000000000000000000000000000008152600401610831906140e3565b60405180910390fd5b6108446001612f32565b60006108506001612f48565b90506000429050600062015180846108689190614103565b826108739190614145565b90506000600360008581526020019081526020016000209050838160000181905550338160010160006101000a81548173ffffffffffffffffffffffffffffffffffffffff021916908373ffffffffffffffffffffffffffffffffffffffff160217905550858160040190805190602001906108f0929190612f56565b508181600301819055508681600501819055508060036000868152602001908152602001600020600082015481600001556001820160009054906101000a900473ffffffffffffffffffffffffffffffffffffffff168160010160006101000a81548173ffffffffffffffffffffffffffffffffffffffff021916908373ffffffffffffffffffffffffffffffffffffffff160217905550600282015481600201556003820154816003015560048201816004019080546109b2929190612fe0565b506005820154816005015560068201816006019080546109d3929190613032565b5060078201816007019080546109ea929190613132565b506008820181600801908054610a019291906131fb565b5090505050505050505050565b610a1781612dcf565b610a56576040517f08c379a0000000000000000000000000000000000000000000000000000000008152600401610a4d906141eb565b60405180910390fd5b610a5f8161252a565b610a9e576040517f08c379a0000000000000000000000000000000000000000000000000000000008152600401610a95906142a3565b60405180910390fd5b600060036000838152602001908152602001600020905060005b8160060180549050811015610b95573373ffffffffffffffffffffffffffffffffffffffff16826006018281548110610af457610af3613f28565b5b906000526020600020906004020160000160009054906101000a900473ffffffffffffffffffffffffffffffffffffffff1673ffffffffffffffffffffffffffffffffffffffff1603610b82576001826006018281548110610b5957610b58613f28565b5b906000526020600020906004020160020160006101000a81548160ff0219169083151502179055505b8080610b8d90613f86565b915050610ab8565b505050565b60008060036000858152602001908152602001600020905060005b8160080180549050811015610c5c578373ffffffffffffffffffffffffffffffffffffffff16826008018281548110610bf157610bf0613f28565b5b906000526020600020906002020160000160009054906101000a900473ffffffffffffffffffffffffffffffffffffffff1673ffffffffffffffffffffffffffffffffffffffff1603610c4957600192505050610c63565b8080610c5490613f86565b915050610bb5565b5060009150505b92915050565b60006003600085815260200190815260200160002090503373ffffffffffffffffffffffffffffffffffffffff168160010160009054906101000a900473ffffffffffffffffffffffffffffffffffffffff1673ffffffffffffffffffffffffffffffffffffffff1614610d12576040517f08c379a0000000000000000000000000000000000000000000000000000000008152600401610d0990614335565b60405180910390fd5b610d1b8461250b565b610d5a576040517f08c379a0000000000000000000000000000000000000000000000000000000008152600401610d5190614439565b60405180910390fd5b8060070180549050816005015411610da7576040517f08c379a0000000000000000000000000000000000000000000000000000000008152600401610d9e9061453d565b60405180910390fd5b600082118015610dba5750620f42408211155b610df9576040517f08c379a0000000000000000000000000000000000000000000000000000000008152600401610df0906145f5565b60405180910390fd5b610e03848461217a565b15610e43576040517f08c379a0000000000000000000000000000000000000000000000000000000008152600401610e3a90614687565b60405180910390fd5b6000610e4e85611d5b565b9050620f42408382610e609190614145565b1115610ea1576040517f08c379a0000000000000000000000000000000000000000000000000000000008152600401610e9890614719565b60405180910390fd5b600060405180604001604052808673ffffffffffffffffffffffffffffffffffffffff1681526020018581525090508260070181908060018154018082558091505060019003906000526020600020906002020160009091909190915060008201518160000160006101000a81548173ffffffffffffffffffffffffffffffffffffffff021916908373ffffffffffffffffffffffffffffffffffffffff160217905550602082015181600101555050505050505050565b60606000600460003373ffffffffffffffffffffffffffffffffffffffff1673ffffffffffffffffffffffffffffffffffffffff16815260200190815260200160002090506000818054905067ffffffffffffffff811115610fbe57610fbd6135bc565b5b604051908082528060200260200182016040528015610ff757816020015b610fe46132c4565b815260200190600190039081610fdc5790505b50905060005b82805490508110156113f057600083828154811061101e5761101d613f28565b5b9060005260206000200154905060006003600083815260200190815260200160002090508060405180610120016040529081600082015481526020016001820160009054906101000a900473ffffffffffffffffffffffffffffffffffffffff1673ffffffffffffffffffffffffffffffffffffffff1673ffffffffffffffffffffffffffffffffffffffff16815260200160028201548152602001600382015481526020016004820180548060200260200160405190810160405280929190818152602001828054801561114857602002820191906000526020600020905b8160009054906101000a900473ffffffffffffffffffffffffffffffffffffffff1673ffffffffffffffffffffffffffffffffffffffff16815260200190600101908083116110fe575b505050505081526020016005820154815260200160068201805480602002602001604051908101604052809291908181526020016000905b8282101561123757838290600052602060002090600402016040518060800160405290816000820160009054906101000a900473ffffffffffffffffffffffffffffffffffffffff1673ffffffffffffffffffffffffffffffffffffffff1673ffffffffffffffffffffffffffffffffffffffff168152602001600182015481526020016002820160009054906101000a900460ff1615151515815260200160038201548152505081526020019060010190611180565b50505050815260200160078201805480602002602001604051908101604052809291908181526020016000905b828210156112f657838290600052602060002090600202016040518060400160405290816000820160009054906101000a900473ffffffffffffffffffffffffffffffffffffffff1673ffffffffffffffffffffffffffffffffffffffff1673ffffffffffffffffffffffffffffffffffffffff16815260200160018201548152505081526020019060010190611264565b50505050815260200160088201805480602002602001604051908101604052809291908181526020016000905b828210156113b557838290600052602060002090600202016040518060400160405290816000820160009054906101000a900473ffffffffffffffffffffffffffffffffffffffff1673ffffffffffffffffffffffffffffffffffffffff1673ffffffffffffffffffffffffffffffffffffffff16815260200160018201548152505081526020019060010190611323565b50505050815250508484815181106113d0576113cf613f28565b5b6020026020010181905250505080806113e890613f86565b915050610ffd565b50809250505090565b60006114048261252a565b6114115760019050611490565b600061141c83611dde565b90508060600151421115611434576001915050611490565b60005b8160c0015151811015611489578160c00151818151811061145b5761145a613f28565b5b60200260200101516040015161147657600092505050611490565b808061148190613f86565b915050611437565b5060019150505b919050565b6000806003600084815260200190815260200160002090506000816008018054905011915050919050565b6000600360008481526020019081526020016000209050600081600501540361151e576040517f08c379a0000000000000000000000000000000000000000000000000000000008152600401611515906147ab565b60405180910390fd5b611527836105d7565b611566576040517f08c379a000000000000000000000000000000000000000000000000000000000815260040161155d90614889565b60405180910390fd5b61156f8361252a565b156115af576040517f08c379a00000000000000000000000000000000000000000000000000000000081526004016115a690614941565b60405180910390fd5b600015156115bc84612dcf565b1515146115fe576040517f08c379a00000000000000000000000000000000000000000000000000000000081526004016115f5906149d3565b60405180910390fd5b60008211611641576040517f08c379a000000000000000000000000000000000000000000000000000000000815260040161163890614a65565b60405180910390fd5b61164a83612da4565b1561173357620f424061165c84611d5b565b1461169c576040517f08c379a000000000000000000000000000000000000000000000000000000000815260040161169390614b43565b60405180910390fd5b6116a6833361217a565b6116e5576040517f08c379a00000000000000000000000000000000000000000000000000000000081526004016116dc90614bfb565b60405180910390fd5b8060070180549050816005015414611732576040517f08c379a000000000000000000000000000000000000000000000000000000000815260040161172990614cff565b60405180910390fd5b5b61173c83611495565b156118235761174b8333610b9a565b61178a576040517f08c379a000000000000000000000000000000000000000000000000000000000815260040161178190614db7565b60405180910390fd5b8161179584336106b7565b146117d5576040517f08c379a00000000000000000000000000000000000000000000000000000000081526004016117cc90614e95565b60405180910390fd5b8060080180549050816005015414611822576040517f08c379a000000000000000000000000000000000000000000000000000000000815260040161181990614f99565b60405180910390fd5b5b60008054906101000a900473ffffffffffffffffffffffffffffffffffffffff1673ffffffffffffffffffffffffffffffffffffffff166323b872dd3330856040518463ffffffff1660e01b815260040161188093929190614fc8565b6020604051808303816000875af115801561189f573d6000803e3d6000fd5b505050506040513d601f19601f820116820180604052508101906118c3919061502b565b50600060405180608001604052803373ffffffffffffffffffffffffffffffffffffffff168152602001848152602001600015158152602001600081525090508160060181908060018154018082558091505060019003906000526020600020906004020160009091909190915060008201518160000160006101000a81548173ffffffffffffffffffffffffffffffffffffffff021916908373ffffffffffffffffffffffffffffffffffffffff1602179055506020820151816001015560408201518160020160006101000a81548160ff021916908315150217905550606082015181600301555050828260020160008282546119c29190614145565b92505081905550600460003373ffffffffffffffffffffffffffffffffffffffff1673ffffffffffffffffffffffffffffffffffffffff1681526020019081526020016000208260000154908060018154018082558091505060019003906000526020600020016000909190919091505550505050565b60008060009050600060036000858152602001908152602001600020905060005b8160060180549050811015611ab157816006018181548110611a7f57611a7e613f28565b5b90600052602060002090600402016001015483611a9c9190614145565b92508080611aa990613f86565b915050611a5a565b508192505050919050565b6000611ac782612dcf565b611b06576040517f08c379a0000000000000000000000000000000000000000000000000000000008152600401611afd906141eb565b60405180910390fd5b600060036000848152602001908152602001600020905060005b8160060180549050811015611bed573373ffffffffffffffffffffffffffffffffffffffff16826006018281548110611b5c57611b5b613f28565b5b906000526020600020906004020160000160009054906101000a900473ffffffffffffffffffffffffffffffffffffffff1673ffffffffffffffffffffffffffffffffffffffff1603611bda57816006018181548110611bbf57611bbe613f28565b5b90600052602060002090600402016001015492505050611bf4565b8080611be590613f86565b915050611b20565b5060009150505b919050565b6000611c0482612dcf565b611c43576040517f08c379a0000000000000000000000000000000000000000000000000000000008152600401611c3a906141eb565b60405180910390fd5b600060036000848152602001908152602001600020905060005b8160060180549050811015611d2a573373ffffffffffffffffffffffffffffffffffffffff16826006018281548110611c9957611c98613f28565b5b906000526020600020906004020160000160009054906101000a900473ffffffffffffffffffffffffffffffffffffffff1673ffffffffffffffffffffffffffffffffffffffff1603611d1757816006018181548110611cfc57611cfb613f28565b5b90600052602060002090600402016003015492505050611d31565b8080611d2290613f86565b915050611c5d565b5060009150505b919050565b6000806003600084815260200190815260200160002090508060020154915050919050565b60008060009050600060036000858152602001908152602001600020905060005b8160070180549050811015611dd357816007018181548110611da157611da0613f28565b5b90600052602060002090600202016001015483611dbe9190614145565b92508080611dcb90613f86565b915050611d7c565b508192505050919050565b611de66132c4565b6003600083815260200190815260200160002060405180610120016040529081600082015481526020016001820160009054906101000a900473ffffffffffffffffffffffffffffffffffffffff1673ffffffffffffffffffffffffffffffffffffffff1673ffffffffffffffffffffffffffffffffffffffff168152602001600282015481526020016003820154815260200160048201805480602002602001604051908101604052809291908181526020018280548015611efe57602002820191906000526020600020905b8160009054906101000a900473ffffffffffffffffffffffffffffffffffffffff1673ffffffffffffffffffffffffffffffffffffffff1681526020019060010190808311611eb4575b505050505081526020016005820154815260200160068201805480602002602001604051908101604052809291908181526020016000905b82821015611fed57838290600052602060002090600402016040518060800160405290816000820160009054906101000a900473ffffffffffffffffffffffffffffffffffffffff1673ffffffffffffffffffffffffffffffffffffffff1673ffffffffffffffffffffffffffffffffffffffff168152602001600182015481526020016002820160009054906101000a900460ff1615151515815260200160038201548152505081526020019060010190611f36565b50505050815260200160078201805480602002602001604051908101604052809291908181526020016000905b828210156120ac57838290600052602060002090600202016040518060400160405290816000820160009054906101000a900473ffffffffffffffffffffffffffffffffffffffff1673ffffffffffffffffffffffffffffffffffffffff1673ffffffffffffffffffffffffffffffffffffffff1681526020016001820154815250508152602001906001019061201a565b50505050815260200160088201805480602002602001604051908101604052809291908181526020016000905b8282101561216b57838290600052602060002090600202016040518060400160405290816000820160009054906101000a900473ffffffffffffffffffffffffffffffffffffffff1673ffffffffffffffffffffffffffffffffffffffff1673ffffffffffffffffffffffffffffffffffffffff168152602001600182015481525050815260200190600101906120d9565b50505050815250509050919050565b60008060036000858152602001908152602001600020905060005b816007018054905081101561223c578373ffffffffffffffffffffffffffffffffffffffff168260070182815481106121d1576121d0613f28565b5b906000526020600020906002020160000160009054906101000a900473ffffffffffffffffffffffffffffffffffffffff1673ffffffffffffffffffffffffffffffffffffffff160361222957600192505050612243565b808061223490613f86565b915050612195565b5060009150505b92915050565b60008060009050600060036000858152602001908152602001600020905060005b81600601805490508110156122c15781600601818154811061228f5761228e613f28565b5b906000526020600020906004020160030154836122ac9190614145565b925080806122b990613f86565b91505061226a565b508192505050919050565b60006003600085815260200190815260200160002090503373ffffffffffffffffffffffffffffffffffffffff168160010160009054906101000a900473ffffffffffffffffffffffffffffffffffffffff1673ffffffffffffffffffffffffffffffffffffffff1614612375576040517f08c379a000000000000000000000000000000000000000000000000000000000815260040161236c90614335565b60405180910390fd5b61237e8461250b565b6123bd576040517f08c379a00000000000000000000000000000000000000000000000000000000081526004016123b490615116565b60405180910390fd5b806008018054905081600501541161240a576040517f08c379a00000000000000000000000000000000000000000000000000000000081526004016124019061521a565b60405180910390fd5b6124148484610b9a565b15612454576040517f08c379a000000000000000000000000000000000000000000000000000000000815260040161244b90614687565b60405180910390fd5b600060405180604001604052808573ffffffffffffffffffffffffffffffffffffffff1681526020018481525090508160080181908060018154018082558091505060019003906000526020600020906002020160009091909190915060008201518160000160006101000a81548173ffffffffffffffffffffffffffffffffffffffff021916908373ffffffffffffffffffffffffffffffffffffffff1602179055506020820151816001015550505050505050565b60008061251783611dde565b905060008160c001515114915050919050565b600080600360008481526020019081526020016000209050600081600501540361255857600091505061256a565b80600601805490508160050154149150505b919050565b61257881612dcf565b6125b7576040517f08c379a00000000000000000000000000000000000000000000000000000000081526004016125ae906141eb565b60405180910390fd5b6125c0816113f9565b6125ff576040517f08c379a00000000000000000000000000000000000000000000000000000000081526004016125f690615286565b60405180910390fd5b600061260a8261252a565b9050600060036000848152602001908152602001600020905061262c83612da4565b6129475760005b8160060180549050811015612941573373ffffffffffffffffffffffffffffffffffffffff1682600601828154811061266f5761266e613f28565b5b906000526020600020906004020160000160009054906101000a900473ffffffffffffffffffffffffffffffffffffffff1673ffffffffffffffffffffffffffffffffffffffff160361292e5760008260060182815481106126d4576126d3613f28565b5b90600052602060002090600402016001015411612726576040517f08c379a000000000000000000000000000000000000000000000000000000000815260040161271d90615318565b60405180910390fd5b81600601818154811061273c5761273b613f28565b5b90600052602060002090600402016001015482600601828154811061276457612763613f28565b5b906000526020600020906004020160030181905550600082600601828154811061279157612790613f28565b5b90600052602060002090600402016001018190555060008054906101000a900473ffffffffffffffffffffffffffffffffffffffff1673ffffffffffffffffffffffffffffffffffffffff1663a9059cbb338460060184815481106127f9576127f8613f28565b5b9060005260206000209060040201600301546040518363ffffffff1660e01b8152600401612828929190615338565b6020604051808303816000875af1158015612847573d6000803e3d6000fd5b505050506040513d601f19601f8201168201806040525081019061286b919061502b565b50826129265781600601818154811061288757612886613f28565b5b9060005260206000209060040201600301548260020160008282546128ac9190615361565b925050819055508160060181815481106128c9576128c8613f28565b5b9060005260206000209060040201600080820160006101000a81549073ffffffffffffffffffffffffffffffffffffffff021916905560018201600090556002820160006101000a81549060ff0219169055600382016000905550505b505050612c62565b808061293990613f86565b915050612633565b50612c5f565b60005b8160060180549050811015612c5d573373ffffffffffffffffffffffffffffffffffffffff1682600601828154811061298657612985613f28565b5b906000526020600020906004020160000160009054906101000a900473ffffffffffffffffffffffffffffffffffffffff1673ffffffffffffffffffffffffffffffffffffffff1603612c4a5760008260060182815481106129eb576129ea613f28565b5b90600052602060002090600402016001015411612a3d576040517f08c379a0000000000000000000000000000000000000000000000000000000008152600401612a3490615318565b60405180910390fd5b6000612a498533612c65565b9050620f4240818460020154612a5f9190614103565b612a6991906153c4565b836006018381548110612a7f57612a7e613f28565b5b9060005260206000209060040201600301819055506000836006018381548110612aac57612aab613f28565b5b90600052602060002090600402016001018190555060008054906101000a900473ffffffffffffffffffffffffffffffffffffffff1673ffffffffffffffffffffffffffffffffffffffff1663a9059cbb33856006018581548110612b1457612b13613f28565b5b9060005260206000209060040201600301546040518363ffffffff1660e01b8152600401612b43929190615338565b6020604051808303816000875af1158015612b62573d6000803e3d6000fd5b505050506040513d601f19601f82011682018060405250810190612b86919061502b565b5083612c4157826006018281548110612ba257612ba1613f28565b5b906000526020600020906004020160030154836002016000828254612bc79190615361565b92505081905550826006018281548110612be457612be3613f28565b5b9060005260206000209060040201600080820160006101000a81549073ffffffffffffffffffffffffffffffffffffffff021916905560018201600090556002820160006101000a81549060ff0219169055600382016000905550505b50505050612c62565b8080612c5590613f86565b91505061294a565b505b50505b50565b6000612c71838361217a565b612cb0576040517f08c379a0000000000000000000000000000000000000000000000000000000008152600401612ca790615467565b60405180910390fd5b600060036000858152602001908152602001600020905060005b8160070180549050811015612d97578373ffffffffffffffffffffffffffffffffffffffff16826007018281548110612d0657612d05613f28565b5b906000526020600020906002020160000160009054906101000a900473ffffffffffffffffffffffffffffffffffffffff1673ffffffffffffffffffffffffffffffffffffffff1603612d8457816007018181548110612d6957612d68613f28565b5b90600052602060002090600202016001015492505050612d9e565b8080612d8f90613f86565b915050612cca565b5060009150505b92915050565b6000806003600084815260200190815260200160002090506000816007018054905011915050919050565b60008060036000848152602001908152602001600020905060005b8160060180549050811015612e91573373ffffffffffffffffffffffffffffffffffffffff16826006018281548110612e2657612e25613f28565b5b906000526020600020906004020160000160009054906101000a900473ffffffffffffffffffffffffffffffffffffffff1673ffffffffffffffffffffffffffffffffffffffff1603612e7e57600192505050612e98565b8080612e8990613f86565b915050612dea565b5060009150505b919050565b6060600460003373ffffffffffffffffffffffffffffffffffffffff1673ffffffffffffffffffffffffffffffffffffffff168152602001908152602001600020805480602002602001604051908101604052809291908181526020018280548015612f2857602002820191906000526020600020905b815481526020019060010190808311612f14575b5050505050905090565b6001816000016000828254019250508190555050565b600081600001549050919050565b828054828255906000526020600020908101928215612fcf579160200282015b82811115612fce5782518260006101000a81548173ffffffffffffffffffffffffffffffffffffffff021916908373ffffffffffffffffffffffffffffffffffffffff16021790555091602001919060010190612f76565b5b509050612fdc9190613326565b5090565b8280548282559060005260206000209081019282156130215760005260206000209182015b82811115613020578254825591600101919060010190613005565b5b50905061302e9190613326565b5090565b8280548282559060005260206000209060040281019282156131215760005260206000209160040282015b828111156131205782826000820160009054906101000a900473ffffffffffffffffffffffffffffffffffffffff168160000160006101000a81548173ffffffffffffffffffffffffffffffffffffffff021916908373ffffffffffffffffffffffffffffffffffffffff160217905550600182015481600101556002820160009054906101000a900460ff168160020160006101000a81548160ff0219169083151502179055506003820154816003015550509160040191906004019061305d565b5b50905061312e9190613343565b5090565b8280548282559060005260206000209060020281019282156131ea5760005260206000209160020282015b828111156131e95782826000820160009054906101000a900473ffffffffffffffffffffffffffffffffffffffff168160000160006101000a81548173ffffffffffffffffffffffffffffffffffffffff021916908373ffffffffffffffffffffffffffffffffffffffff1602179055506001820154816001015550509160020191906002019061315d565b5b5090506131f791906133a5565b5090565b8280548282559060005260206000209060020281019282156132b35760005260206000209160020282015b828111156132b25782826000820160009054906101000a900473ffffffffffffffffffffffffffffffffffffffff168160000160006101000a81548173ffffffffffffffffffffffffffffffffffffffff021916908373ffffffffffffffffffffffffffffffffffffffff16021790555060018201548160010155505091600201919060020190613226565b5b5090506132c091906133eb565b5090565b60405180610120016040528060008152602001600073ffffffffffffffffffffffffffffffffffffffff168152602001600081526020016000815260200160608152602001600081526020016060815260200160608152602001606081525090565b5b8082111561333f576000816000905550600101613327565b5090565b5b808211156133a157600080820160006101000a81549073ffffffffffffffffffffffffffffffffffffffff021916905560018201600090556002820160006101000a81549060ff0219169055600382016000905550600401613344565b5090565b5b808211156133e757600080820160006101000a81549073ffffffffffffffffffffffffffffffffffffffff02191690556001820160009055506002016133a6565b5090565b5b8082111561342d57600080820160006101000a81549073ffffffffffffffffffffffffffffffffffffffff02191690556001820160009055506002016133ec565b5090565b6000604051905090565b600080fd5b600080fd5b6000819050919050565b61345881613445565b811461346357600080fd5b50565b6000813590506134758161344f565b92915050565b6000602082840312156134915761349061343b565b5b600061349f84828501613466565b91505092915050565b60008115159050919050565b6134bd816134a8565b82525050565b60006020820190506134d860008301846134b4565b92915050565b600073ffffffffffffffffffffffffffffffffffffffff82169050919050565b6000613509826134de565b9050919050565b613519816134fe565b811461352457600080fd5b50565b60008135905061353681613510565b92915050565b600080604083850312156135535761355261343b565b5b600061356185828601613466565b925050602061357285828601613527565b9150509250929050565b61358581613445565b82525050565b60006020820190506135a0600083018461357c565b92915050565b600080fd5b6000601f19601f8301169050919050565b7f4e487b7100000000000000000000000000000000000000000000000000000000600052604160045260246000fd5b6135f4826135ab565b810181811067ffffffffffffffff82111715613613576136126135bc565b5b80604052505050565b6000613626613431565b905061363282826135eb565b919050565b600067ffffffffffffffff821115613652576136516135bc565b5b602082029050602081019050919050565b600080fd5b600061367b61367684613637565b61361c565b9050808382526020820190506020840283018581111561369e5761369d613663565b5b835b818110156136c757806136b38882613527565b8452602084019350506020810190506136a0565b5050509392505050565b600082601f8301126136e6576136e56135a6565b5b81356136f6848260208601613668565b91505092915050565b6000806000606084860312156137185761371761343b565b5b600061372686828701613466565b935050602084013567ffffffffffffffff81111561374757613746613440565b5b613753868287016136d1565b925050604061376486828701613466565b9150509250925092565b6000806000606084860312156137875761378661343b565b5b600061379586828701613466565b93505060206137a686828701613527565b92505060406137b786828701613466565b9150509250925092565b600081519050919050565b600082825260208201905092915050565b6000819050602082019050919050565b6137f681613445565b82525050565b613805816134fe565b82525050565b600081519050919050565b600082825260208201905092915050565b6000819050602082019050919050565b600061384383836137fc565b60208301905092915050565b6000602082019050919050565b60006138678261380b565b6138718185613816565b935061387c83613827565b8060005b838110156138ad5781516138948882613837565b975061389f8361384f565b925050600181019050613880565b5085935050505092915050565b600081519050919050565b600082825260208201905092915050565b6000819050602082019050919050565b6138ef816134a8565b82525050565b60808201600082015161390b60008501826137fc565b50602082015161391e60208501826137ed565b50604082015161393160408501826138e6565b50606082015161394460608501826137ed565b50505050565b600061395683836138f5565b60808301905092915050565b6000602082019050919050565b600061397a826138ba565b61398481856138c5565b935061398f836138d6565b8060005b838110156139c05781516139a7888261394a565b97506139b283613962565b925050600181019050613993565b5085935050505092915050565b600081519050919050565b600082825260208201905092915050565b6000819050602082019050919050565b604082016000820151613a0f60008501826137fc565b506020820151613a2260208501826137ed565b50505050565b6000613a3483836139f9565b60408301905092915050565b6000602082019050919050565b6000613a58826139cd565b613a6281856139d8565b9350613a6d836139e9565b8060005b83811015613a9e578151613a858882613a28565b9750613a9083613a40565b925050600181019050613a71565b5085935050505092915050565b600081519050919050565b600082825260208201905092915050565b6000819050602082019050919050565b604082016000820151613aed60008501826137fc565b506020820151613b0060208501826137ed565b50505050565b6000613b128383613ad7565b60408301905092915050565b6000602082019050919050565b6000613b3682613aab565b613b408185613ab6565b9350613b4b83613ac7565b8060005b83811015613b7c578151613b638882613b06565b9750613b6e83613b1e565b925050600181019050613b4f565b5085935050505092915050565b600061012083016000830151613ba260008601826137ed565b506020830151613bb560208601826137fc565b506040830151613bc860408601826137ed565b506060830151613bdb60608601826137ed565b5060808301518482036080860152613bf3828261385c565b91505060a0830151613c0860a08601826137ed565b5060c083015184820360c0860152613c20828261396f565b91505060e083015184820360e0860152613c3a8282613a4d565b915050610100830151848203610100860152613c568282613b2b565b9150508091505092915050565b6000613c6f8383613b89565b905092915050565b6000602082019050919050565b6000613c8f826137c1565b613c9981856137cc565b935083602082028501613cab856137dd565b8060005b85811015613ce75784840389528151613cc88582613c63565b9450613cd383613c77565b925060208a01995050600181019050613caf565b50829750879550505050505092915050565b60006020820190508181036000830152613d138184613c84565b905092915050565b60008060408385031215613d3257613d3161343b565b5b6000613d4085828601613466565b9250506020613d5185828601613466565b9150509250929050565b600061012083016000830151613d7460008601826137ed565b506020830151613d8760208601826137fc565b506040830151613d9a60408601826137ed565b506060830151613dad60608601826137ed565b5060808301518482036080860152613dc5828261385c565b91505060a0830151613dda60a08601826137ed565b5060c083015184820360c0860152613df2828261396f565b91505060e083015184820360e0860152613e0c8282613a4d565b915050610100830151848203610100860152613e288282613b2b565b9150508091505092915050565b60006020820190508181036000830152613e4f8184613d5b565b905092915050565b600081519050919050565b600082825260208201905092915050565b6000819050602082019050919050565b6000613e8f83836137ed565b60208301905092915050565b6000602082019050919050565b6000613eb382613e57565b613ebd8185613e62565b9350613ec883613e73565b8060005b83811015613ef9578151613ee08882613e83565b9750613eeb83613e9b565b925050600181019050613ecc565b5085935050505092915050565b60006020820190508181036000830152613f208184613ea8565b905092915050565b7f4e487b7100000000000000000000000000000000000000000000000000000000600052603260045260246000fd5b7f4e487b7100000000000000000000000000000000000000000000000000000000600052601160045260246000fd5b6000613f9182613445565b91507fffffffffffffffffffffffffffffffffffffffffffffffffffffffffffffffff8203613fc357613fc2613f57565b5b600182019050919050565b600082825260208201905092915050565b7f6c6f636b20636f6e6669672073657474696e67206d757374206265207365742060008201527f666f722061646472657373000000000000000000000000000000000000000000602082015250565b600061403b602b83613fce565b915061404682613fdf565b604082019050919050565b6000602082019050818103600083015261406a8161402e565b9050919050565b7f4e756d626572206f6620696e766f6c7665642070617274696573206d7573742060008201527f626520657175616c206f722067726561746572207468616e2032000000000000602082015250565b60006140cd603a83613fce565b91506140d882614071565b604082019050919050565b600060208201905081810360008301526140fc816140c0565b9050919050565b600061410e82613445565b915061411983613445565b925082820261412781613445565b9150828204841483151761413e5761413d613f57565b5b5092915050565b600061415082613445565b915061415b83613445565b925082820190508082111561417357614172613f57565b5b92915050565b7f41646472657373206973206e6f742070617274206f6620636f6e74726163742c60008201527f2063616e742070726f6365646500000000000000000000000000000000000000602082015250565b60006141d5602d83613fce565b91506141e082614179565b604082019050919050565b60006020820190508181036000830152614204816141c8565b9050919050565b7f436f6e7472616374206d7573742062652066756c6c79207369676e656420627960008201527f20616c6c207061727469657320696e206f7264657220746f20617070726f766560208201527f2072656c65617365000000000000000000000000000000000000000000000000604082015250565b600061428d604883613fce565b91506142988261420b565b606082019050919050565b600060208201905081810360008301526142bc81614280565b9050919050565b7f436f6e74726163742063616e206f6e6c79206265206d6f64696669656420627960008201527f206974732063726561746f720000000000000000000000000000000000000000602082015250565b600061431f602c83613fce565b915061432a826142c3565b604082019050919050565b6000602082019050818103600083015261434e81614312565b9050919050565b7f70726f706f7274696f6e206f66207769746864726177616c2063616e206f6e6c60008201527f792062652073657420696e206120647261667420636f6e74726163742e20412060208201527f647261667420636f6e7472616374206973206120636f6e74726163742074686160408201527f74206861736e74206265656e207369676e656420627920616e7920706172747960608201527f207965742e000000000000000000000000000000000000000000000000000000608082015250565b6000614423608583613fce565b915061442e82614355565b60a082019050919050565b6000602082019050818103600083015261445281614416565b9050919050565b7f63616e74207365742066757274686572207769746864726177616c20636f6e6660008201527f6967732e20436f6e74726163742068617320646566696e6564206120746f746160208201527f6c20616d6f756e74206f66207061727469657320616e6420616464696e67206f60408201527f6e65206d6f726520636f6e66696720776f756c6420657863656564207468617460608201527f20616d6f756e7400000000000000000000000000000000000000000000000000608082015250565b6000614527608783613fce565b915061453282614459565b60a082019050919050565b600060208201905081810360008301526145568161451a565b9050919050565b7f70726f706f7274696f6e206d7573742062652061206e756d626572206772656160008201527f746572207468616e203020616e64206c657373206f7220657175616c2074686160208201527f6e2031206d696c6c696f6e000000000000000000000000000000000000000000604082015250565b60006145df604b83613fce565b91506145ea8261455d565b606082019050919050565b6000602082019050818103600083015261460e816145d2565b9050919050565b7f616464726573732068617320616c7265616479206120636f6e6669677572617460008201527f696f6e2073657475700000000000000000000000000000000000000000000000602082015250565b6000614671602983613fce565b915061467c82614615565b604082019050919050565b600060208201905081810360008301526146a081614664565b9050919050565b7f746f74616c2070726f706f7274696f6e206f662066756e64207769746864726160008201527f77616c2063616e74206578636565642031303025000000000000000000000000602082015250565b6000614703603483613fce565b915061470e826146a7565b604082019050919050565b60006020820190508181036000830152614732816146f6565b9050919050565b7f43616e74206a6f696e20636f6e74726163742e20436f6e74726163742068617360008201527f206e6f74206265656e20696e697469616c697a65640000000000000000000000602082015250565b6000614795603583613fce565b91506147a082614739565b604082019050919050565b600060208201905081810360008301526147c481614788565b9050919050565b7f43616e74206a6f696e20636f6e74726163742e20436f6e74726163742068617360008201527f20616464726573732077686974656c697374696e6720656e61626c656420616e60208201527f642061646472657373206973206e6f742070617274206f6620746865206c697360408201527f7400000000000000000000000000000000000000000000000000000000000000606082015250565b6000614873606183613fce565b915061487e826147cb565b608082019050919050565b600060208201905081810360008301526148a281614866565b9050919050565b7f43616e74206a6f696e20636f6e74726163742c2069742068617320616c72656160008201527f6479206265656e207369676e656420627920616c6c20696e766f6c766564207060208201527f6172746965730000000000000000000000000000000000000000000000000000604082015250565b600061492b604683613fce565b9150614936826148a9565b606082019050919050565b6000602082019050818103600083015261495a8161491e565b9050919050565b7f43616e74206a6f696e20636f6e74726163742c2061646472657373206861732060008201527f616c7265616479207369676e6564207468697320636f6e747261637400000000602082015250565b60006149bd603c83613fce565b91506149c882614961565b604082019050919050565b600060208201905081810360008301526149ec816149b0565b9050919050565b7f416d6f756e7420746f206c6f636b206d7573742062652067726561746572207460008201527f68616e2030000000000000000000000000000000000000000000000000000000602082015250565b6000614a4f602583613fce565b9150614a5a826149f3565b604082019050919050565b60006020820190508181036000830152614a7e81614a42565b9050919050565b7f63616e742061646865726520746f20636f6e74726163742069662070726f706f60008201527f7274696f6e206f66207769746864726177616c206861736e74206265656e206660208201527f756c6c7920636f6e666967757265642e2050657263656e74616765206d75737460408201527f2061646420746f20313030250000000000000000000000000000000000000000606082015250565b6000614b2d606c83613fce565b9150614b3882614a85565b608082019050919050565b60006020820190508181036000830152614b5c81614b20565b9050919050565b7f43616e74206a6f696e20636f6e74726163742c207769746864726177616c206360008201527f6f6e646974696f6e732068617665206265656e2073657420616e64206164647260208201527f657373206973206e6f742070617274206f66207468656d000000000000000000604082015250565b6000614be5605783613fce565b9150614bf082614b63565b606082019050919050565b60006020820190508181036000830152614c1481614bd8565b9050919050565b7f43616e74206a6f696e20636f6e74726163742e205769746864726177616c206360008201527f6f6e66696775726174696f6e206e6f7420636f6d706c6574652e20546865206160208201527f6d6f756e74206f6620656e7472696573206d757374206d61746368207468652060408201527f6e756d626572206f66207061727469657320646566696e656420696e2074686560608201527f20636f6e74726163740000000000000000000000000000000000000000000000608082015250565b6000614ce9608983613fce565b9150614cf482614c1b565b60a082019050919050565b60006020820190508181036000830152614d1881614cdc565b9050919050565b7f43616e74206a6f696e20636f6e74726163742c206c6f636b696e6720636f6e6460008201527f6974696f6e732068617665206265656e2073657420616e64206164647265737360208201527f206973206e6f742070617274206f66207468656d000000000000000000000000604082015250565b6000614da1605483613fce565b9150614dac82614d1f565b606082019050919050565b60006020820190508181036000830152614dd081614d94565b9050919050565b7f43616e74206a6f696e20636f6e74726163742c206c6f636b696e6720636f6e6660008201527f696775726174696f6e20686173206265656e2073657420616e6420616d6f756e60208201527f7420746f206c6f636b20697320646966666572656e74207468616e207468652060408201527f616d6f756e7420636f6e66696775726564000000000000000000000000000000606082015250565b6000614e7f607183613fce565b9150614e8a82614dd7565b608082019050919050565b60006020820190508181036000830152614eae81614e72565b9050919050565b7f43616e74206a6f696e20636f6e74726163742e204c6f636b20636f6e6669677560008201527f726174696f6e206e6f7420636f6d706c6574652e2054686520616d6f756e742060208201527f6f6620656e7472696573206d757374206d6174636820746865206e756d62657260408201527f206f66207061727469657320646566696e656420696e2074686520636f6e747260608201527f6163740000000000000000000000000000000000000000000000000000000000608082015250565b6000614f83608383613fce565b9150614f8e82614eb5565b60a082019050919050565b60006020820190508181036000830152614fb281614f76565b9050919050565b614fc2816134fe565b82525050565b6000606082019050614fdd6000830186614fb9565b614fea6020830185614fb9565b614ff7604083018461357c565b949350505050565b615008816134a8565b811461501357600080fd5b50565b60008151905061502581614fff565b92915050565b6000602082840312156150415761504061343b565b5b600061504f84828501615016565b91505092915050565b7f6c6f636b20636f6e6669672063616e206f6e6c792062652073657420696e206160008201527f20647261667420636f6e74726163742e204120647261667420636f6e7472616360208201527f74206973206120636f6e74726163742074686174206861736e74206265656e2060408201527f7369676e656420627920616e79207061727479207965742e0000000000000000606082015250565b6000615100607883613fce565b915061510b82615058565b608082019050919050565b6000602082019050818103600083015261512f816150f3565b9050919050565b7f63616e74207365742066757274686572206c6f636b20636f6e666967732e204360008201527f6f6e74726163742068617320646566696e6564206120746f74616c20616d6f7560208201527f6e74206f66207061727469657320616e6420616464696e67206f6e65206d6f7260408201527f6520636f6e66696720776f756c6420657863656564207468617420616d6f756e60608201527f7400000000000000000000000000000000000000000000000000000000000000608082015250565b6000615204608183613fce565b915061520f82615136565b60a082019050919050565b60006020820190508181036000830152615233816151f7565b9050919050565b7f636f6e7472616374206973206e6f742072656465656d61626c65207965740000600082015250565b6000615270601e83613fce565b915061527b8261523a565b602082019050919050565b6000602082019050818103600083015261529f81615263565b9050919050565b7f616c6c2066756e647320666f722074686973206164647265737320686176652060008201527f6265656e2077697468647261776e000000000000000000000000000000000000602082015250565b6000615302602e83613fce565b915061530d826152a6565b604082019050919050565b60006020820190508181036000830152615331816152f5565b9050919050565b600060408201905061534d6000830185614fb9565b61535a602083018461357c565b9392505050565b600061536c82613445565b915061537783613445565b925082820390508181111561538f5761538e613f57565b5b92915050565b7f4e487b7100000000000000000000000000000000000000000000000000000000600052601260045260246000fd5b60006153cf82613445565b91506153da83613445565b9250826153ea576153e9615395565b5b828204905092915050565b7f7769746864726177616c2070726f706f7274696f6e2073657474696e67206d7560008201527f73742062652073657420666f7220616464726573730000000000000000000000602082015250565b6000615451603583613fce565b915061545c826153f5565b604082019050919050565b6000602082019050818103600083015261548081615444565b905091905056fea2646970667358221220142be1d27ef87ab3982206af13b435fe8ac2d07a67abeda47ac777f0f9b185cf64736f6c63430008110033",
  "linkReferences": {},
  "deployedLinkReferences": {}
}